{
	"contracts/FiatTokenV1.sol": {
		"Blacklistable": {
			"abi": [
				{
					"constant": false,
					"inputs": [
						{
							"name": "_account",
							"type": "address"
						}
					],
					"name": "unBlacklist",
					"outputs": [],
					"payable": false,
					"stateMutability": "nonpayable",
					"type": "function"
				},
				{
					"constant": true,
					"inputs": [],
					"name": "owner",
					"outputs": [
						{
							"name": "",
							"type": "address"
						}
					],
					"payable": false,
					"stateMutability": "view",
					"type": "function"
				},
				{
					"constant": false,
					"inputs": [
						{
							"name": "_newBlacklister",
							"type": "address"
						}
					],
					"name": "updateBlacklister",
					"outputs": [],
					"payable": false,
					"stateMutability": "nonpayable",
					"type": "function"
				},
				{
					"constant": true,
					"inputs": [],
					"name": "blacklister",
					"outputs": [
						{
							"name": "",
							"type": "address"
						}
					],
					"payable": false,
					"stateMutability": "view",
					"type": "function"
				},
				{
					"constant": false,
					"inputs": [
						{
							"name": "newOwner",
							"type": "address"
						}
					],
					"name": "transferOwnership",
					"outputs": [],
					"payable": false,
					"stateMutability": "nonpayable",
					"type": "function"
				},
				{
					"constant": false,
					"inputs": [
						{
							"name": "_account",
							"type": "address"
						}
					],
					"name": "blacklist",
					"outputs": [],
					"payable": false,
					"stateMutability": "nonpayable",
					"type": "function"
				},
				{
					"constant": true,
					"inputs": [
						{
							"name": "_account",
							"type": "address"
						}
					],
					"name": "isBlacklisted",
					"outputs": [
						{
							"name": "",
							"type": "bool"
						}
					],
					"payable": false,
					"stateMutability": "view",
					"type": "function"
				},
				{
					"anonymous": false,
					"inputs": [
						{
							"indexed": true,
							"name": "_account",
							"type": "address"
						}
					],
					"name": "Blacklisted",
					"type": "event"
				},
				{
					"anonymous": false,
					"inputs": [
						{
							"indexed": true,
							"name": "_account",
							"type": "address"
						}
					],
					"name": "UnBlacklisted",
					"type": "event"
				},
				{
					"anonymous": false,
					"inputs": [
						{
							"indexed": true,
							"name": "newBlacklister",
							"type": "address"
						}
					],
					"name": "BlacklisterChanged",
					"type": "event"
				},
				{
					"anonymous": false,
					"inputs": [
						{
							"indexed": false,
							"name": "previousOwner",
							"type": "address"
						},
						{
							"indexed": false,
							"name": "newOwner",
							"type": "address"
						}
					],
					"name": "OwnershipTransferred",
					"type": "event"
				}
			],
			"devdoc": {
				"methods": {
					"blacklist(address)": {
						"details": "Adds account to blacklist\r",
						"params": {
							"_account": "The address to blacklist\r"
						}
					},
					"isBlacklisted(address)": {
						"details": "Checks if account is blacklisted\r",
						"params": {
							"_account": "The address to check    \r"
						}
					},
					"owner()": {
						"details": "Tells the address of the owner\r",
						"return": "the address of the owner\r"
					},
					"transferOwnership(address)": {
						"details": "Allows the current owner to transfer control of the contract to a newOwner.\r",
						"params": {
							"newOwner": "The address to transfer ownership to.\r"
						}
					},
					"unBlacklist(address)": {
						"details": "Removes account from blacklist\r",
						"params": {
							"_account": "The address to remove from the blacklist\r"
						}
					}
				},
				"title": "Blacklistable Token\r"
			},
			"evm": {
				"assembly": "    /* \"contracts/FiatTokenV1.sol\":4336:6050  contract Blacklistable is Ownable {\r... */\n  mstore(0x40, 0x80)\n    /* \"contracts/FiatTokenV1.sol\":2200:2220  setOwner(msg.sender) */\n  tag_3\n    /* \"contracts/FiatTokenV1.sol\":2209:2219  msg.sender */\n  caller\n    /* \"contracts/FiatTokenV1.sol\":2200:2208  setOwner */\n  shl(0x20, tag_4)\n    /* \"contracts/FiatTokenV1.sol\":2200:2220  setOwner(msg.sender) */\n  0x20\n  shr\n  jump\t// in\ntag_3:\n    /* \"contracts/FiatTokenV1.sol\":4336:6050  contract Blacklistable is Ownable {\r... */\n  jump(tag_5)\n    /* \"contracts/FiatTokenV1.sol\":2450:2525  function setOwner(address newOwner) internal {\r... */\ntag_4:\n    /* \"contracts/FiatTokenV1.sol\":2511:2519  newOwner */\n  dup1\n    /* \"contracts/FiatTokenV1.sol\":2502:2508  _owner */\n  0x0\n  dup1\n    /* \"contracts/FiatTokenV1.sol\":2502:2519  _owner = newOwner */\n  0x100\n  exp\n  dup2\n  sload\n  dup2\n  0xffffffffffffffffffffffffffffffffffffffff\n  mul\n  not\n  and\n  swap1\n  dup4\n  0xffffffffffffffffffffffffffffffffffffffff\n  and\n  mul\n  or\n  swap1\n  sstore\n  pop\n    /* \"contracts/FiatTokenV1.sol\":2450:2525  function setOwner(address newOwner) internal {\r... */\n  pop\n  jump\t// out\n    /* \"contracts/FiatTokenV1.sol\":4336:6050  contract Blacklistable is Ownable {\r... */\ntag_5:\n  dataSize(sub_0)\n  dup1\n  dataOffset(sub_0)\n  0x0\n  codecopy\n  0x0\n  return\nstop\n\nsub_0: assembly {\n        /* \"contracts/FiatTokenV1.sol\":4336:6050  contract Blacklistable is Ownable {\r... */\n      mstore(0x40, 0x80)\n      jumpi(tag_1, lt(calldatasize, 0x4))\n      and(0xffffffff, shr(0xe0, calldataload(0x0)))\n      dup1\n      0x1a895266\n      eq\n      tag_2\n      jumpi\n      dup1\n      0x8da5cb5b\n      eq\n      tag_3\n      jumpi\n      dup1\n      0xad38bf22\n      eq\n      tag_4\n      jumpi\n      dup1\n      0xbd102430\n      eq\n      tag_5\n      jumpi\n      dup1\n      0xf2fde38b\n      eq\n      tag_6\n      jumpi\n      dup1\n      0xf9f92be4\n      eq\n      tag_7\n      jumpi\n      dup1\n      0xfe575a87\n      eq\n      tag_8\n      jumpi\n    tag_1:\n      0x0\n      dup1\n      revert\n        /* \"contracts/FiatTokenV1.sol\":5677:5826  function unBlacklist(address _account) public onlyBlacklister {\r... */\n    tag_2:\n      callvalue\n        /* \"--CODEGEN--\":8:17   */\n      dup1\n        /* \"--CODEGEN--\":5:7   */\n      iszero\n      tag_9\n      jumpi\n        /* \"--CODEGEN--\":30:31   */\n      0x0\n        /* \"--CODEGEN--\":27:28   */\n      dup1\n        /* \"--CODEGEN--\":20:32   */\n      revert\n        /* \"--CODEGEN--\":5:7   */\n    tag_9:\n        /* \"contracts/FiatTokenV1.sol\":5677:5826  function unBlacklist(address _account) public onlyBlacklister {\r... */\n      pop\n      tag_10\n      0x4\n      dup1\n      calldatasize\n      sub\n      dup2\n      add\n      swap1\n      dup1\n      dup1\n      calldataload\n      0xffffffffffffffffffffffffffffffffffffffff\n      and\n      swap1\n      0x20\n      add\n      swap1\n      swap3\n      swap2\n      swap1\n      pop\n      pop\n      pop\n      jump(tag_11)\n    tag_10:\n      stop\n        /* \"contracts/FiatTokenV1.sol\":2321:2394  function owner() public view returns (address) {\r... */\n    tag_3:\n      callvalue\n        /* \"--CODEGEN--\":8:17   */\n      dup1\n        /* \"--CODEGEN--\":5:7   */\n      iszero\n      tag_12\n      jumpi\n        /* \"--CODEGEN--\":30:31   */\n      0x0\n        /* \"--CODEGEN--\":27:28   */\n      dup1\n        /* \"--CODEGEN--\":20:32   */\n      revert\n        /* \"--CODEGEN--\":5:7   */\n    tag_12:\n        /* \"contracts/FiatTokenV1.sol\":2321:2394  function owner() public view returns (address) {\r... */\n      pop\n      tag_13\n      jump(tag_14)\n    tag_13:\n      mload(0x40)\n      dup1\n      dup3\n      0xffffffffffffffffffffffffffffffffffffffff\n      and\n      0xffffffffffffffffffffffffffffffffffffffff\n      and\n      dup2\n      mstore\n      0x20\n      add\n      swap2\n      pop\n      pop\n      mload(0x40)\n      dup1\n      swap2\n      sub\n      swap1\n      return\n        /* \"contracts/FiatTokenV1.sol\":5834:6047  function updateBlacklister(address _newBlacklister) public onlyOwner {\r... */\n    tag_4:\n      callvalue\n        /* \"--CODEGEN--\":8:17   */\n      dup1\n        /* \"--CODEGEN--\":5:7   */\n      iszero\n      tag_15\n      jumpi\n        /* \"--CODEGEN--\":30:31   */\n      0x0\n        /* \"--CODEGEN--\":27:28   */\n      dup1\n        /* \"--CODEGEN--\":20:32   */\n      revert\n        /* \"--CODEGEN--\":5:7   */\n    tag_15:\n        /* \"contracts/FiatTokenV1.sol\":5834:6047  function updateBlacklister(address _newBlacklister) public onlyOwner {\r... */\n      pop\n      tag_16\n      0x4\n      dup1\n      calldatasize\n      sub\n      dup2\n      add\n      swap1\n      dup1\n      dup1\n      calldataload\n      0xffffffffffffffffffffffffffffffffffffffff\n      and\n      swap1\n      0x20\n      add\n      swap1\n      swap3\n      swap2\n      swap1\n      pop\n      pop\n      pop\n      jump(tag_17)\n    tag_16:\n      stop\n        /* \"contracts/FiatTokenV1.sol\":4379:4405  address public blacklister */\n    tag_5:\n      callvalue\n        /* \"--CODEGEN--\":8:17   */\n      dup1\n        /* \"--CODEGEN--\":5:7   */\n      iszero\n      tag_18\n      jumpi\n        /* \"--CODEGEN--\":30:31   */\n      0x0\n        /* \"--CODEGEN--\":27:28   */\n      dup1\n        /* \"--CODEGEN--\":20:32   */\n      revert\n        /* \"--CODEGEN--\":5:7   */\n    tag_18:\n        /* \"contracts/FiatTokenV1.sol\":4379:4405  address public blacklister */\n      pop\n      tag_19\n      jump(tag_20)\n    tag_19:\n      mload(0x40)\n      dup1\n      dup3\n      0xffffffffffffffffffffffffffffffffffffffff\n      and\n      0xffffffffffffffffffffffffffffffffffffffff\n      and\n      dup2\n      mstore\n      0x20\n      add\n      swap2\n      pop\n      pop\n      mload(0x40)\n      dup1\n      swap2\n      sub\n      swap1\n      return\n        /* \"contracts/FiatTokenV1.sol\":2847:3029  function transferOwnership(address newOwner) public onlyOwner {\r... */\n    tag_6:\n      callvalue\n        /* \"--CODEGEN--\":8:17   */\n      dup1\n        /* \"--CODEGEN--\":5:7   */\n      iszero\n      tag_21\n      jumpi\n        /* \"--CODEGEN--\":30:31   */\n      0x0\n        /* \"--CODEGEN--\":27:28   */\n      dup1\n        /* \"--CODEGEN--\":20:32   */\n      revert\n        /* \"--CODEGEN--\":5:7   */\n    tag_21:\n        /* \"contracts/FiatTokenV1.sol\":2847:3029  function transferOwnership(address newOwner) public onlyOwner {\r... */\n      pop\n      tag_22\n      0x4\n      dup1\n      calldatasize\n      sub\n      dup2\n      add\n      swap1\n      dup1\n      dup1\n      calldataload\n      0xffffffffffffffffffffffffffffffffffffffff\n      and\n      swap1\n      0x20\n      add\n      swap1\n      swap3\n      swap2\n      swap1\n      pop\n      pop\n      pop\n      jump(tag_23)\n    tag_22:\n      stop\n        /* \"contracts/FiatTokenV1.sol\":5399:5543  function blacklist(address _account) public onlyBlacklister {\r... */\n    tag_7:\n      callvalue\n        /* \"--CODEGEN--\":8:17   */\n      dup1\n        /* \"--CODEGEN--\":5:7   */\n      iszero\n      tag_24\n      jumpi\n        /* \"--CODEGEN--\":30:31   */\n      0x0\n        /* \"--CODEGEN--\":27:28   */\n      dup1\n        /* \"--CODEGEN--\":20:32   */\n      revert\n        /* \"--CODEGEN--\":5:7   */\n    tag_24:\n        /* \"contracts/FiatTokenV1.sol\":5399:5543  function blacklist(address _account) public onlyBlacklister {\r... */\n      pop\n      tag_25\n      0x4\n      dup1\n      calldatasize\n      sub\n      dup2\n      add\n      swap1\n      dup1\n      dup1\n      calldataload\n      0xffffffffffffffffffffffffffffffffffffffff\n      and\n      swap1\n      0x20\n      add\n      swap1\n      swap3\n      swap2\n      swap1\n      pop\n      pop\n      pop\n      jump(tag_26)\n    tag_25:\n      stop\n        /* \"contracts/FiatTokenV1.sol\":5171:5286  function isBlacklisted(address _account) public view returns (bool) {\r... */\n    tag_8:\n      callvalue\n        /* \"--CODEGEN--\":8:17   */\n      dup1\n        /* \"--CODEGEN--\":5:7   */\n      iszero\n      tag_27\n      jumpi\n        /* \"--CODEGEN--\":30:31   */\n      0x0\n        /* \"--CODEGEN--\":27:28   */\n      dup1\n        /* \"--CODEGEN--\":20:32   */\n      revert\n        /* \"--CODEGEN--\":5:7   */\n    tag_27:\n        /* \"contracts/FiatTokenV1.sol\":5171:5286  function isBlacklisted(address _account) public view returns (bool) {\r... */\n      pop\n      tag_28\n      0x4\n      dup1\n      calldatasize\n      sub\n      dup2\n      add\n      swap1\n      dup1\n      dup1\n      calldataload\n      0xffffffffffffffffffffffffffffffffffffffff\n      and\n      swap1\n      0x20\n      add\n      swap1\n      swap3\n      swap2\n      swap1\n      pop\n      pop\n      pop\n      jump(tag_29)\n    tag_28:\n      mload(0x40)\n      dup1\n      dup3\n      iszero\n      iszero\n      iszero\n      iszero\n      dup2\n      mstore\n      0x20\n      add\n      swap2\n      pop\n      pop\n      mload(0x40)\n      dup1\n      swap2\n      sub\n      swap1\n      return\n        /* \"contracts/FiatTokenV1.sol\":5677:5826  function unBlacklist(address _account) public onlyBlacklister {\r... */\n    tag_11:\n        /* \"contracts/FiatTokenV1.sol\":4782:4793  blacklister */\n      0x1\n      0x0\n      swap1\n      sload\n      swap1\n      0x100\n      exp\n      swap1\n      div\n      0xffffffffffffffffffffffffffffffffffffffff\n      and\n        /* \"contracts/FiatTokenV1.sol\":4768:4793  msg.sender == blacklister */\n      0xffffffffffffffffffffffffffffffffffffffff\n      and\n        /* \"contracts/FiatTokenV1.sol\":4768:4778  msg.sender */\n      caller\n        /* \"contracts/FiatTokenV1.sol\":4768:4793  msg.sender == blacklister */\n      0xffffffffffffffffffffffffffffffffffffffff\n      and\n      eq\n        /* \"contracts/FiatTokenV1.sol\":4760:4794  require(msg.sender == blacklister) */\n      iszero\n      iszero\n      tag_31\n      jumpi\n      0x0\n      dup1\n      revert\n    tag_31:\n        /* \"contracts/FiatTokenV1.sol\":5774:5779  false */\n      0x0\n        /* \"contracts/FiatTokenV1.sol\":5750:5761  blacklisted */\n      0x2\n        /* \"contracts/FiatTokenV1.sol\":5750:5771  blacklisted[_account] */\n      0x0\n        /* \"contracts/FiatTokenV1.sol\":5762:5770  _account */\n      dup4\n        /* \"contracts/FiatTokenV1.sol\":5750:5771  blacklisted[_account] */\n      0xffffffffffffffffffffffffffffffffffffffff\n      and\n      0xffffffffffffffffffffffffffffffffffffffff\n      and\n      dup2\n      mstore\n      0x20\n      add\n      swap1\n      dup2\n      mstore\n      0x20\n      add\n      0x0\n      keccak256\n      0x0\n        /* \"contracts/FiatTokenV1.sol\":5750:5779  blacklisted[_account] = false */\n      0x100\n      exp\n      dup2\n      sload\n      dup2\n      0xff\n      mul\n      not\n      and\n      swap1\n      dup4\n      iszero\n      iszero\n      mul\n      or\n      swap1\n      sstore\n      pop\n        /* \"contracts/FiatTokenV1.sol\":5809:5817  _account */\n      dup1\n        /* \"contracts/FiatTokenV1.sol\":5795:5818  UnBlacklisted(_account) */\n      0xffffffffffffffffffffffffffffffffffffffff\n      and\n      0x117e3210bb9aa7d9baff172026820255c6f6c30ba8999d1c2fd88e2848137c4e\n      mload(0x40)\n      mload(0x40)\n      dup1\n      swap2\n      sub\n      swap1\n      log2\n        /* \"contracts/FiatTokenV1.sol\":5677:5826  function unBlacklist(address _account) public onlyBlacklister {\r... */\n      pop\n      jump\t// out\n        /* \"contracts/FiatTokenV1.sol\":2321:2394  function owner() public view returns (address) {\r... */\n    tag_14:\n        /* \"contracts/FiatTokenV1.sol\":2359:2366  address */\n      0x0\n        /* \"contracts/FiatTokenV1.sol\":2382:2388  _owner */\n      dup1\n      0x0\n      swap1\n      sload\n      swap1\n      0x100\n      exp\n      swap1\n      div\n      0xffffffffffffffffffffffffffffffffffffffff\n      and\n        /* \"contracts/FiatTokenV1.sol\":2375:2388  return _owner */\n      swap1\n      pop\n        /* \"contracts/FiatTokenV1.sol\":2321:2394  function owner() public view returns (address) {\r... */\n      swap1\n      jump\t// out\n        /* \"contracts/FiatTokenV1.sol\":5834:6047  function updateBlacklister(address _newBlacklister) public onlyOwner {\r... */\n    tag_17:\n        /* \"contracts/FiatTokenV1.sol\":2658:2665  owner() */\n      tag_35\n        /* \"contracts/FiatTokenV1.sol\":2658:2663  owner */\n      tag_14\n        /* \"contracts/FiatTokenV1.sol\":2658:2665  owner() */\n      jump\t// in\n    tag_35:\n        /* \"contracts/FiatTokenV1.sol\":2644:2665  msg.sender == owner() */\n      0xffffffffffffffffffffffffffffffffffffffff\n      and\n        /* \"contracts/FiatTokenV1.sol\":2644:2654  msg.sender */\n      caller\n        /* \"contracts/FiatTokenV1.sol\":2644:2665  msg.sender == owner() */\n      0xffffffffffffffffffffffffffffffffffffffff\n      and\n      eq\n        /* \"contracts/FiatTokenV1.sol\":2636:2666  require(msg.sender == owner()) */\n      iszero\n      iszero\n      tag_36\n      jumpi\n      0x0\n      dup1\n      revert\n    tag_36:\n        /* \"contracts/FiatTokenV1.sol\":5949:5950  0 */\n      0x0\n        /* \"contracts/FiatTokenV1.sol\":5922:5951  _newBlacklister != address(0) */\n      0xffffffffffffffffffffffffffffffffffffffff\n      and\n        /* \"contracts/FiatTokenV1.sol\":5922:5937  _newBlacklister */\n      dup2\n        /* \"contracts/FiatTokenV1.sol\":5922:5951  _newBlacklister != address(0) */\n      0xffffffffffffffffffffffffffffffffffffffff\n      and\n      eq\n      iszero\n        /* \"contracts/FiatTokenV1.sol\":5914:5952  require(_newBlacklister != address(0)) */\n      iszero\n      iszero\n      tag_38\n      jumpi\n      0x0\n      dup1\n      revert\n    tag_38:\n        /* \"contracts/FiatTokenV1.sol\":5977:5992  _newBlacklister */\n      dup1\n        /* \"contracts/FiatTokenV1.sol\":5963:5974  blacklister */\n      0x1\n      0x0\n        /* \"contracts/FiatTokenV1.sol\":5963:5992  blacklister = _newBlacklister */\n      0x100\n      exp\n      dup2\n      sload\n      dup2\n      0xffffffffffffffffffffffffffffffffffffffff\n      mul\n      not\n      and\n      swap1\n      dup4\n      0xffffffffffffffffffffffffffffffffffffffff\n      and\n      mul\n      or\n      swap1\n      sstore\n      pop\n        /* \"contracts/FiatTokenV1.sol\":6027:6038  blacklister */\n      0x1\n      0x0\n      swap1\n      sload\n      swap1\n      0x100\n      exp\n      swap1\n      div\n      0xffffffffffffffffffffffffffffffffffffffff\n      and\n        /* \"contracts/FiatTokenV1.sol\":6008:6039  BlacklisterChanged(blacklister) */\n      0xffffffffffffffffffffffffffffffffffffffff\n      and\n      0xc67398012c111ce95ecb7429b933096c977380ee6c421175a71a4a4c6c88c06e\n      mload(0x40)\n      mload(0x40)\n      dup1\n      swap2\n      sub\n      swap1\n      log2\n        /* \"contracts/FiatTokenV1.sol\":5834:6047  function updateBlacklister(address _newBlacklister) public onlyOwner {\r... */\n      pop\n      jump\t// out\n        /* \"contracts/FiatTokenV1.sol\":4379:4405  address public blacklister */\n    tag_20:\n      0x1\n      0x0\n      swap1\n      sload\n      swap1\n      0x100\n      exp\n      swap1\n      div\n      0xffffffffffffffffffffffffffffffffffffffff\n      and\n      dup2\n      jump\t// out\n        /* \"contracts/FiatTokenV1.sol\":2847:3029  function transferOwnership(address newOwner) public onlyOwner {\r... */\n    tag_23:\n        /* \"contracts/FiatTokenV1.sol\":2658:2665  owner() */\n      tag_40\n        /* \"contracts/FiatTokenV1.sol\":2658:2663  owner */\n      tag_14\n        /* \"contracts/FiatTokenV1.sol\":2658:2665  owner() */\n      jump\t// in\n    tag_40:\n        /* \"contracts/FiatTokenV1.sol\":2644:2665  msg.sender == owner() */\n      0xffffffffffffffffffffffffffffffffffffffff\n      and\n        /* \"contracts/FiatTokenV1.sol\":2644:2654  msg.sender */\n      caller\n        /* \"contracts/FiatTokenV1.sol\":2644:2665  msg.sender == owner() */\n      0xffffffffffffffffffffffffffffffffffffffff\n      and\n      eq\n        /* \"contracts/FiatTokenV1.sol\":2636:2666  require(msg.sender == owner()) */\n      iszero\n      iszero\n      tag_41\n      jumpi\n      0x0\n      dup1\n      revert\n    tag_41:\n        /* \"contracts/FiatTokenV1.sol\":2944:2945  0 */\n      0x0\n        /* \"contracts/FiatTokenV1.sol\":2924:2946  newOwner != address(0) */\n      0xffffffffffffffffffffffffffffffffffffffff\n      and\n        /* \"contracts/FiatTokenV1.sol\":2924:2932  newOwner */\n      dup2\n        /* \"contracts/FiatTokenV1.sol\":2924:2946  newOwner != address(0) */\n      0xffffffffffffffffffffffffffffffffffffffff\n      and\n      eq\n      iszero\n        /* \"contracts/FiatTokenV1.sol\":2916:2947  require(newOwner != address(0)) */\n      iszero\n      iszero\n      tag_43\n      jumpi\n      0x0\n      dup1\n      revert\n    tag_43:\n        /* \"contracts/FiatTokenV1.sol\":2959:2998  OwnershipTransferred(owner(), newOwner) */\n      0x8be0079c531659141344cd1fd0a4f28419497f9722a3daafe3b4186f6b6457e0\n        /* \"contracts/FiatTokenV1.sol\":2980:2987  owner() */\n      tag_44\n        /* \"contracts/FiatTokenV1.sol\":2980:2985  owner */\n      tag_14\n        /* \"contracts/FiatTokenV1.sol\":2980:2987  owner() */\n      jump\t// in\n    tag_44:\n        /* \"contracts/FiatTokenV1.sol\":2989:2997  newOwner */\n      dup3\n        /* \"contracts/FiatTokenV1.sol\":2959:2998  OwnershipTransferred(owner(), newOwner) */\n      mload(0x40)\n      dup1\n      dup4\n      0xffffffffffffffffffffffffffffffffffffffff\n      and\n      0xffffffffffffffffffffffffffffffffffffffff\n      and\n      dup2\n      mstore\n      0x20\n      add\n      dup3\n      0xffffffffffffffffffffffffffffffffffffffff\n      and\n      0xffffffffffffffffffffffffffffffffffffffff\n      and\n      dup2\n      mstore\n      0x20\n      add\n      swap3\n      pop\n      pop\n      pop\n      mload(0x40)\n      dup1\n      swap2\n      sub\n      swap1\n      log1\n        /* \"contracts/FiatTokenV1.sol\":3005:3023  setOwner(newOwner) */\n      tag_45\n        /* \"contracts/FiatTokenV1.sol\":3014:3022  newOwner */\n      dup2\n        /* \"contracts/FiatTokenV1.sol\":3005:3013  setOwner */\n      tag_46\n        /* \"contracts/FiatTokenV1.sol\":3005:3023  setOwner(newOwner) */\n      jump\t// in\n    tag_45:\n        /* \"contracts/FiatTokenV1.sol\":2847:3029  function transferOwnership(address newOwner) public onlyOwner {\r... */\n      pop\n      jump\t// out\n        /* \"contracts/FiatTokenV1.sol\":5399:5543  function blacklist(address _account) public onlyBlacklister {\r... */\n    tag_26:\n        /* \"contracts/FiatTokenV1.sol\":4782:4793  blacklister */\n      0x1\n      0x0\n      swap1\n      sload\n      swap1\n      0x100\n      exp\n      swap1\n      div\n      0xffffffffffffffffffffffffffffffffffffffff\n      and\n        /* \"contracts/FiatTokenV1.sol\":4768:4793  msg.sender == blacklister */\n      0xffffffffffffffffffffffffffffffffffffffff\n      and\n        /* \"contracts/FiatTokenV1.sol\":4768:4778  msg.sender */\n      caller\n        /* \"contracts/FiatTokenV1.sol\":4768:4793  msg.sender == blacklister */\n      0xffffffffffffffffffffffffffffffffffffffff\n      and\n      eq\n        /* \"contracts/FiatTokenV1.sol\":4760:4794  require(msg.sender == blacklister) */\n      iszero\n      iszero\n      tag_48\n      jumpi\n      0x0\n      dup1\n      revert\n    tag_48:\n        /* \"contracts/FiatTokenV1.sol\":5494:5498  true */\n      0x1\n        /* \"contracts/FiatTokenV1.sol\":5470:5481  blacklisted */\n      0x2\n        /* \"contracts/FiatTokenV1.sol\":5470:5491  blacklisted[_account] */\n      0x0\n        /* \"contracts/FiatTokenV1.sol\":5482:5490  _account */\n      dup4\n        /* \"contracts/FiatTokenV1.sol\":5470:5491  blacklisted[_account] */\n      0xffffffffffffffffffffffffffffffffffffffff\n      and\n      0xffffffffffffffffffffffffffffffffffffffff\n      and\n      dup2\n      mstore\n      0x20\n      add\n      swap1\n      dup2\n      mstore\n      0x20\n      add\n      0x0\n      keccak256\n      0x0\n        /* \"contracts/FiatTokenV1.sol\":5470:5498  blacklisted[_account] = true */\n      0x100\n      exp\n      dup2\n      sload\n      dup2\n      0xff\n      mul\n      not\n      and\n      swap1\n      dup4\n      iszero\n      iszero\n      mul\n      or\n      swap1\n      sstore\n      pop\n        /* \"contracts/FiatTokenV1.sol\":5526:5534  _account */\n      dup1\n        /* \"contracts/FiatTokenV1.sol\":5514:5535  Blacklisted(_account) */\n      0xffffffffffffffffffffffffffffffffffffffff\n      and\n      0xffa4e6181777692565cf28528fc88fd1516ea86b56da075235fa575af6a4b855\n      mload(0x40)\n      mload(0x40)\n      dup1\n      swap2\n      sub\n      swap1\n      log2\n        /* \"contracts/FiatTokenV1.sol\":5399:5543  function blacklist(address _account) public onlyBlacklister {\r... */\n      pop\n      jump\t// out\n        /* \"contracts/FiatTokenV1.sol\":5171:5286  function isBlacklisted(address _account) public view returns (bool) {\r... */\n    tag_29:\n        /* \"contracts/FiatTokenV1.sol\":5233:5237  bool */\n      0x0\n        /* \"contracts/FiatTokenV1.sol\":5257:5268  blacklisted */\n      0x2\n        /* \"contracts/FiatTokenV1.sol\":5257:5278  blacklisted[_account] */\n      0x0\n        /* \"contracts/FiatTokenV1.sol\":5269:5277  _account */\n      dup4\n        /* \"contracts/FiatTokenV1.sol\":5257:5278  blacklisted[_account] */\n      0xffffffffffffffffffffffffffffffffffffffff\n      and\n      0xffffffffffffffffffffffffffffffffffffffff\n      and\n      dup2\n      mstore\n      0x20\n      add\n      swap1\n      dup2\n      mstore\n      0x20\n      add\n      0x0\n      keccak256\n      0x0\n      swap1\n      sload\n      swap1\n      0x100\n      exp\n      swap1\n      div\n      0xff\n      and\n        /* \"contracts/FiatTokenV1.sol\":5250:5278  return blacklisted[_account] */\n      swap1\n      pop\n        /* \"contracts/FiatTokenV1.sol\":5171:5286  function isBlacklisted(address _account) public view returns (bool) {\r... */\n      swap2\n      swap1\n      pop\n      jump\t// out\n        /* \"contracts/FiatTokenV1.sol\":2450:2525  function setOwner(address newOwner) internal {\r... */\n    tag_46:\n        /* \"contracts/FiatTokenV1.sol\":2511:2519  newOwner */\n      dup1\n        /* \"contracts/FiatTokenV1.sol\":2502:2508  _owner */\n      0x0\n      dup1\n        /* \"contracts/FiatTokenV1.sol\":2502:2519  _owner = newOwner */\n      0x100\n      exp\n      dup2\n      sload\n      dup2\n      0xffffffffffffffffffffffffffffffffffffffff\n      mul\n      not\n      and\n      swap1\n      dup4\n      0xffffffffffffffffffffffffffffffffffffffff\n      and\n      mul\n      or\n      swap1\n      sstore\n      pop\n        /* \"contracts/FiatTokenV1.sol\":2450:2525  function setOwner(address newOwner) internal {\r... */\n      pop\n      jump\t// out\n\n    auxdata: 0xa165627a7a72305820b7177c541fe9fb6b24b22b6268000650e00b914e2923e075e0e67df151b454570029\n}\n",
				"bytecode": {
					"linkReferences": {},
					"object": "60806040526100133361001860201b60201c565b61005b565b806000806101000a81548173ffffffffffffffffffffffffffffffffffffffff021916908373ffffffffffffffffffffffffffffffffffffffff16021790555050565b6107d58061006a6000396000f3006080604052600436106100665760003560e01c63ffffffff1680631a8952661461006b5780638da5cb5b146100ae578063ad38bf2214610105578063bd10243014610148578063f2fde38b1461019f578063f9f92be4146101e2578063fe575a8714610225575b600080fd5b34801561007757600080fd5b506100ac600480360381019080803573ffffffffffffffffffffffffffffffffffffffff169060200190929190505050610280565b005b3480156100ba57600080fd5b506100c361037a565b604051808273ffffffffffffffffffffffffffffffffffffffff1673ffffffffffffffffffffffffffffffffffffffff16815260200191505060405180910390f35b34801561011157600080fd5b50610146600480360381019080803573ffffffffffffffffffffffffffffffffffffffff1690602001909291905050506103a3565b005b34801561015457600080fd5b5061015d6104c9565b604051808273ffffffffffffffffffffffffffffffffffffffff1673ffffffffffffffffffffffffffffffffffffffff16815260200191505060405180910390f35b3480156101ab57600080fd5b506101e0600480360381019080803573ffffffffffffffffffffffffffffffffffffffff1690602001909291905050506104ef565b005b3480156101ee57600080fd5b50610223600480360381019080803573ffffffffffffffffffffffffffffffffffffffff169060200190929190505050610616565b005b34801561023157600080fd5b50610266600480360381019080803573ffffffffffffffffffffffffffffffffffffffff169060200190929190505050610710565b604051808215151515815260200191505060405180910390f35b600160009054906101000a900473ffffffffffffffffffffffffffffffffffffffff1673ffffffffffffffffffffffffffffffffffffffff163373ffffffffffffffffffffffffffffffffffffffff161415156102dc57600080fd5b6000600260008373ffffffffffffffffffffffffffffffffffffffff1673ffffffffffffffffffffffffffffffffffffffff16815260200190815260200160002060006101000a81548160ff0219169083151502179055508073ffffffffffffffffffffffffffffffffffffffff167f117e3210bb9aa7d9baff172026820255c6f6c30ba8999d1c2fd88e2848137c4e60405160405180910390a250565b60008060009054906101000a900473ffffffffffffffffffffffffffffffffffffffff16905090565b6103ab61037a565b73ffffffffffffffffffffffffffffffffffffffff163373ffffffffffffffffffffffffffffffffffffffff161415156103e457600080fd5b600073ffffffffffffffffffffffffffffffffffffffff168173ffffffffffffffffffffffffffffffffffffffff161415151561042057600080fd5b80600160006101000a81548173ffffffffffffffffffffffffffffffffffffffff021916908373ffffffffffffffffffffffffffffffffffffffff160217905550600160009054906101000a900473ffffffffffffffffffffffffffffffffffffffff1673ffffffffffffffffffffffffffffffffffffffff167fc67398012c111ce95ecb7429b933096c977380ee6c421175a71a4a4c6c88c06e60405160405180910390a250565b600160009054906101000a900473ffffffffffffffffffffffffffffffffffffffff1681565b6104f761037a565b73ffffffffffffffffffffffffffffffffffffffff163373ffffffffffffffffffffffffffffffffffffffff1614151561053057600080fd5b600073ffffffffffffffffffffffffffffffffffffffff168173ffffffffffffffffffffffffffffffffffffffff161415151561056c57600080fd5b7f8be0079c531659141344cd1fd0a4f28419497f9722a3daafe3b4186f6b6457e061059561037a565b82604051808373ffffffffffffffffffffffffffffffffffffffff1673ffffffffffffffffffffffffffffffffffffffff1681526020018273ffffffffffffffffffffffffffffffffffffffff1673ffffffffffffffffffffffffffffffffffffffff1681526020019250505060405180910390a161061381610766565b50565b600160009054906101000a900473ffffffffffffffffffffffffffffffffffffffff1673ffffffffffffffffffffffffffffffffffffffff163373ffffffffffffffffffffffffffffffffffffffff1614151561067257600080fd5b6001600260008373ffffffffffffffffffffffffffffffffffffffff1673ffffffffffffffffffffffffffffffffffffffff16815260200190815260200160002060006101000a81548160ff0219169083151502179055508073ffffffffffffffffffffffffffffffffffffffff167fffa4e6181777692565cf28528fc88fd1516ea86b56da075235fa575af6a4b85560405160405180910390a250565b6000600260008373ffffffffffffffffffffffffffffffffffffffff1673ffffffffffffffffffffffffffffffffffffffff16815260200190815260200160002060009054906101000a900460ff169050919050565b806000806101000a81548173ffffffffffffffffffffffffffffffffffffffff021916908373ffffffffffffffffffffffffffffffffffffffff160217905550505600a165627a7a72305820b7177c541fe9fb6b24b22b6268000650e00b914e2923e075e0e67df151b454570029",
					"opcodes": "PUSH1 0x80 PUSH1 0x40 MSTORE PUSH2 0x13 CALLER PUSH2 0x18 PUSH1 0x20 SHL PUSH1 0x20 SHR JUMP JUMPDEST PUSH2 0x5B JUMP JUMPDEST DUP1 PUSH1 0x0 DUP1 PUSH2 0x100 EXP DUP2 SLOAD DUP2 PUSH20 0xFFFFFFFFFFFFFFFFFFFFFFFFFFFFFFFFFFFFFFFF MUL NOT AND SWAP1 DUP4 PUSH20 0xFFFFFFFFFFFFFFFFFFFFFFFFFFFFFFFFFFFFFFFF AND MUL OR SWAP1 SSTORE POP POP JUMP JUMPDEST PUSH2 0x7D5 DUP1 PUSH2 0x6A PUSH1 0x0 CODECOPY PUSH1 0x0 RETURN STOP PUSH1 0x80 PUSH1 0x40 MSTORE PUSH1 0x4 CALLDATASIZE LT PUSH2 0x66 JUMPI PUSH1 0x0 CALLDATALOAD PUSH1 0xE0 SHR PUSH4 0xFFFFFFFF AND DUP1 PUSH4 0x1A895266 EQ PUSH2 0x6B JUMPI DUP1 PUSH4 0x8DA5CB5B EQ PUSH2 0xAE JUMPI DUP1 PUSH4 0xAD38BF22 EQ PUSH2 0x105 JUMPI DUP1 PUSH4 0xBD102430 EQ PUSH2 0x148 JUMPI DUP1 PUSH4 0xF2FDE38B EQ PUSH2 0x19F JUMPI DUP1 PUSH4 0xF9F92BE4 EQ PUSH2 0x1E2 JUMPI DUP1 PUSH4 0xFE575A87 EQ PUSH2 0x225 JUMPI JUMPDEST PUSH1 0x0 DUP1 REVERT JUMPDEST CALLVALUE DUP1 ISZERO PUSH2 0x77 JUMPI PUSH1 0x0 DUP1 REVERT JUMPDEST POP PUSH2 0xAC PUSH1 0x4 DUP1 CALLDATASIZE SUB DUP2 ADD SWAP1 DUP1 DUP1 CALLDATALOAD PUSH20 0xFFFFFFFFFFFFFFFFFFFFFFFFFFFFFFFFFFFFFFFF AND SWAP1 PUSH1 0x20 ADD SWAP1 SWAP3 SWAP2 SWAP1 POP POP POP PUSH2 0x280 JUMP JUMPDEST STOP JUMPDEST CALLVALUE DUP1 ISZERO PUSH2 0xBA JUMPI PUSH1 0x0 DUP1 REVERT JUMPDEST POP PUSH2 0xC3 PUSH2 0x37A JUMP JUMPDEST PUSH1 0x40 MLOAD DUP1 DUP3 PUSH20 0xFFFFFFFFFFFFFFFFFFFFFFFFFFFFFFFFFFFFFFFF AND PUSH20 0xFFFFFFFFFFFFFFFFFFFFFFFFFFFFFFFFFFFFFFFF AND DUP2 MSTORE PUSH1 0x20 ADD SWAP2 POP POP PUSH1 0x40 MLOAD DUP1 SWAP2 SUB SWAP1 RETURN JUMPDEST CALLVALUE DUP1 ISZERO PUSH2 0x111 JUMPI PUSH1 0x0 DUP1 REVERT JUMPDEST POP PUSH2 0x146 PUSH1 0x4 DUP1 CALLDATASIZE SUB DUP2 ADD SWAP1 DUP1 DUP1 CALLDATALOAD PUSH20 0xFFFFFFFFFFFFFFFFFFFFFFFFFFFFFFFFFFFFFFFF AND SWAP1 PUSH1 0x20 ADD SWAP1 SWAP3 SWAP2 SWAP1 POP POP POP PUSH2 0x3A3 JUMP JUMPDEST STOP JUMPDEST CALLVALUE DUP1 ISZERO PUSH2 0x154 JUMPI PUSH1 0x0 DUP1 REVERT JUMPDEST POP PUSH2 0x15D PUSH2 0x4C9 JUMP JUMPDEST PUSH1 0x40 MLOAD DUP1 DUP3 PUSH20 0xFFFFFFFFFFFFFFFFFFFFFFFFFFFFFFFFFFFFFFFF AND PUSH20 0xFFFFFFFFFFFFFFFFFFFFFFFFFFFFFFFFFFFFFFFF AND DUP2 MSTORE PUSH1 0x20 ADD SWAP2 POP POP PUSH1 0x40 MLOAD DUP1 SWAP2 SUB SWAP1 RETURN JUMPDEST CALLVALUE DUP1 ISZERO PUSH2 0x1AB JUMPI PUSH1 0x0 DUP1 REVERT JUMPDEST POP PUSH2 0x1E0 PUSH1 0x4 DUP1 CALLDATASIZE SUB DUP2 ADD SWAP1 DUP1 DUP1 CALLDATALOAD PUSH20 0xFFFFFFFFFFFFFFFFFFFFFFFFFFFFFFFFFFFFFFFF AND SWAP1 PUSH1 0x20 ADD SWAP1 SWAP3 SWAP2 SWAP1 POP POP POP PUSH2 0x4EF JUMP JUMPDEST STOP JUMPDEST CALLVALUE DUP1 ISZERO PUSH2 0x1EE JUMPI PUSH1 0x0 DUP1 REVERT JUMPDEST POP PUSH2 0x223 PUSH1 0x4 DUP1 CALLDATASIZE SUB DUP2 ADD SWAP1 DUP1 DUP1 CALLDATALOAD PUSH20 0xFFFFFFFFFFFFFFFFFFFFFFFFFFFFFFFFFFFFFFFF AND SWAP1 PUSH1 0x20 ADD SWAP1 SWAP3 SWAP2 SWAP1 POP POP POP PUSH2 0x616 JUMP JUMPDEST STOP JUMPDEST CALLVALUE DUP1 ISZERO PUSH2 0x231 JUMPI PUSH1 0x0 DUP1 REVERT JUMPDEST POP PUSH2 0x266 PUSH1 0x4 DUP1 CALLDATASIZE SUB DUP2 ADD SWAP1 DUP1 DUP1 CALLDATALOAD PUSH20 0xFFFFFFFFFFFFFFFFFFFFFFFFFFFFFFFFFFFFFFFF AND SWAP1 PUSH1 0x20 ADD SWAP1 SWAP3 SWAP2 SWAP1 POP POP POP PUSH2 0x710 JUMP JUMPDEST PUSH1 0x40 MLOAD DUP1 DUP3 ISZERO ISZERO ISZERO ISZERO DUP2 MSTORE PUSH1 0x20 ADD SWAP2 POP POP PUSH1 0x40 MLOAD DUP1 SWAP2 SUB SWAP1 RETURN JUMPDEST PUSH1 0x1 PUSH1 0x0 SWAP1 SLOAD SWAP1 PUSH2 0x100 EXP SWAP1 DIV PUSH20 0xFFFFFFFFFFFFFFFFFFFFFFFFFFFFFFFFFFFFFFFF AND PUSH20 0xFFFFFFFFFFFFFFFFFFFFFFFFFFFFFFFFFFFFFFFF AND CALLER PUSH20 0xFFFFFFFFFFFFFFFFFFFFFFFFFFFFFFFFFFFFFFFF AND EQ ISZERO ISZERO PUSH2 0x2DC JUMPI PUSH1 0x0 DUP1 REVERT JUMPDEST PUSH1 0x0 PUSH1 0x2 PUSH1 0x0 DUP4 PUSH20 0xFFFFFFFFFFFFFFFFFFFFFFFFFFFFFFFFFFFFFFFF AND PUSH20 0xFFFFFFFFFFFFFFFFFFFFFFFFFFFFFFFFFFFFFFFF AND DUP2 MSTORE PUSH1 0x20 ADD SWAP1 DUP2 MSTORE PUSH1 0x20 ADD PUSH1 0x0 KECCAK256 PUSH1 0x0 PUSH2 0x100 EXP DUP2 SLOAD DUP2 PUSH1 0xFF MUL NOT AND SWAP1 DUP4 ISZERO ISZERO MUL OR SWAP1 SSTORE POP DUP1 PUSH20 0xFFFFFFFFFFFFFFFFFFFFFFFFFFFFFFFFFFFFFFFF AND PUSH32 0x117E3210BB9AA7D9BAFF172026820255C6F6C30BA8999D1C2FD88E2848137C4E PUSH1 0x40 MLOAD PUSH1 0x40 MLOAD DUP1 SWAP2 SUB SWAP1 LOG2 POP JUMP JUMPDEST PUSH1 0x0 DUP1 PUSH1 0x0 SWAP1 SLOAD SWAP1 PUSH2 0x100 EXP SWAP1 DIV PUSH20 0xFFFFFFFFFFFFFFFFFFFFFFFFFFFFFFFFFFFFFFFF AND SWAP1 POP SWAP1 JUMP JUMPDEST PUSH2 0x3AB PUSH2 0x37A JUMP JUMPDEST PUSH20 0xFFFFFFFFFFFFFFFFFFFFFFFFFFFFFFFFFFFFFFFF AND CALLER PUSH20 0xFFFFFFFFFFFFFFFFFFFFFFFFFFFFFFFFFFFFFFFF AND EQ ISZERO ISZERO PUSH2 0x3E4 JUMPI PUSH1 0x0 DUP1 REVERT JUMPDEST PUSH1 0x0 PUSH20 0xFFFFFFFFFFFFFFFFFFFFFFFFFFFFFFFFFFFFFFFF AND DUP2 PUSH20 0xFFFFFFFFFFFFFFFFFFFFFFFFFFFFFFFFFFFFFFFF AND EQ ISZERO ISZERO ISZERO PUSH2 0x420 JUMPI PUSH1 0x0 DUP1 REVERT JUMPDEST DUP1 PUSH1 0x1 PUSH1 0x0 PUSH2 0x100 EXP DUP2 SLOAD DUP2 PUSH20 0xFFFFFFFFFFFFFFFFFFFFFFFFFFFFFFFFFFFFFFFF MUL NOT AND SWAP1 DUP4 PUSH20 0xFFFFFFFFFFFFFFFFFFFFFFFFFFFFFFFFFFFFFFFF AND MUL OR SWAP1 SSTORE POP PUSH1 0x1 PUSH1 0x0 SWAP1 SLOAD SWAP1 PUSH2 0x100 EXP SWAP1 DIV PUSH20 0xFFFFFFFFFFFFFFFFFFFFFFFFFFFFFFFFFFFFFFFF AND PUSH20 0xFFFFFFFFFFFFFFFFFFFFFFFFFFFFFFFFFFFFFFFF AND PUSH32 0xC67398012C111CE95ECB7429B933096C977380EE6C421175A71A4A4C6C88C06E PUSH1 0x40 MLOAD PUSH1 0x40 MLOAD DUP1 SWAP2 SUB SWAP1 LOG2 POP JUMP JUMPDEST PUSH1 0x1 PUSH1 0x0 SWAP1 SLOAD SWAP1 PUSH2 0x100 EXP SWAP1 DIV PUSH20 0xFFFFFFFFFFFFFFFFFFFFFFFFFFFFFFFFFFFFFFFF AND DUP2 JUMP JUMPDEST PUSH2 0x4F7 PUSH2 0x37A JUMP JUMPDEST PUSH20 0xFFFFFFFFFFFFFFFFFFFFFFFFFFFFFFFFFFFFFFFF AND CALLER PUSH20 0xFFFFFFFFFFFFFFFFFFFFFFFFFFFFFFFFFFFFFFFF AND EQ ISZERO ISZERO PUSH2 0x530 JUMPI PUSH1 0x0 DUP1 REVERT JUMPDEST PUSH1 0x0 PUSH20 0xFFFFFFFFFFFFFFFFFFFFFFFFFFFFFFFFFFFFFFFF AND DUP2 PUSH20 0xFFFFFFFFFFFFFFFFFFFFFFFFFFFFFFFFFFFFFFFF AND EQ ISZERO ISZERO ISZERO PUSH2 0x56C JUMPI PUSH1 0x0 DUP1 REVERT JUMPDEST PUSH32 0x8BE0079C531659141344CD1FD0A4F28419497F9722A3DAAFE3B4186F6B6457E0 PUSH2 0x595 PUSH2 0x37A JUMP JUMPDEST DUP3 PUSH1 0x40 MLOAD DUP1 DUP4 PUSH20 0xFFFFFFFFFFFFFFFFFFFFFFFFFFFFFFFFFFFFFFFF AND PUSH20 0xFFFFFFFFFFFFFFFFFFFFFFFFFFFFFFFFFFFFFFFF AND DUP2 MSTORE PUSH1 0x20 ADD DUP3 PUSH20 0xFFFFFFFFFFFFFFFFFFFFFFFFFFFFFFFFFFFFFFFF AND PUSH20 0xFFFFFFFFFFFFFFFFFFFFFFFFFFFFFFFFFFFFFFFF AND DUP2 MSTORE PUSH1 0x20 ADD SWAP3 POP POP POP PUSH1 0x40 MLOAD DUP1 SWAP2 SUB SWAP1 LOG1 PUSH2 0x613 DUP2 PUSH2 0x766 JUMP JUMPDEST POP JUMP JUMPDEST PUSH1 0x1 PUSH1 0x0 SWAP1 SLOAD SWAP1 PUSH2 0x100 EXP SWAP1 DIV PUSH20 0xFFFFFFFFFFFFFFFFFFFFFFFFFFFFFFFFFFFFFFFF AND PUSH20 0xFFFFFFFFFFFFFFFFFFFFFFFFFFFFFFFFFFFFFFFF AND CALLER PUSH20 0xFFFFFFFFFFFFFFFFFFFFFFFFFFFFFFFFFFFFFFFF AND EQ ISZERO ISZERO PUSH2 0x672 JUMPI PUSH1 0x0 DUP1 REVERT JUMPDEST PUSH1 0x1 PUSH1 0x2 PUSH1 0x0 DUP4 PUSH20 0xFFFFFFFFFFFFFFFFFFFFFFFFFFFFFFFFFFFFFFFF AND PUSH20 0xFFFFFFFFFFFFFFFFFFFFFFFFFFFFFFFFFFFFFFFF AND DUP2 MSTORE PUSH1 0x20 ADD SWAP1 DUP2 MSTORE PUSH1 0x20 ADD PUSH1 0x0 KECCAK256 PUSH1 0x0 PUSH2 0x100 EXP DUP2 SLOAD DUP2 PUSH1 0xFF MUL NOT AND SWAP1 DUP4 ISZERO ISZERO MUL OR SWAP1 SSTORE POP DUP1 PUSH20 0xFFFFFFFFFFFFFFFFFFFFFFFFFFFFFFFFFFFFFFFF AND PUSH32 0xFFA4E6181777692565CF28528FC88FD1516EA86B56DA075235FA575AF6A4B855 PUSH1 0x40 MLOAD PUSH1 0x40 MLOAD DUP1 SWAP2 SUB SWAP1 LOG2 POP JUMP JUMPDEST PUSH1 0x0 PUSH1 0x2 PUSH1 0x0 DUP4 PUSH20 0xFFFFFFFFFFFFFFFFFFFFFFFFFFFFFFFFFFFFFFFF AND PUSH20 0xFFFFFFFFFFFFFFFFFFFFFFFFFFFFFFFFFFFFFFFF AND DUP2 MSTORE PUSH1 0x20 ADD SWAP1 DUP2 MSTORE PUSH1 0x20 ADD PUSH1 0x0 KECCAK256 PUSH1 0x0 SWAP1 SLOAD SWAP1 PUSH2 0x100 EXP SWAP1 DIV PUSH1 0xFF AND SWAP1 POP SWAP2 SWAP1 POP JUMP JUMPDEST DUP1 PUSH1 0x0 DUP1 PUSH2 0x100 EXP DUP2 SLOAD DUP2 PUSH20 0xFFFFFFFFFFFFFFFFFFFFFFFFFFFFFFFFFFFFFFFF MUL NOT AND SWAP1 DUP4 PUSH20 0xFFFFFFFFFFFFFFFFFFFFFFFFFFFFFFFFFFFFFFFF AND MUL OR SWAP1 SSTORE POP POP JUMP STOP LOG1 PUSH6 0x627A7A723058 KECCAK256 0xb7 OR PUSH29 0x541FE9FB6B24B22B6268000650E00B914E2923E075E0E67DF151B45457 STOP 0x29 "
				},
				"gasEstimates": {
					"creation": {
						"codeDepositCost": "401000",
						"executionCost": "infinite",
						"totalCost": "infinite"
					},
					"external": {
						"blacklist(address)": "22096",
						"blacklister()": "503",
						"isBlacklisted(address)": "734",
						"owner()": "467",
						"transferOwnership(address)": "infinite",
						"unBlacklist(address)": "21986",
						"updateBlacklister(address)": "22255"
					}
				},
				"methodIdentifiers": {
					"blacklist(address)": "f9f92be4",
					"blacklister()": "bd102430",
					"isBlacklisted(address)": "fe575a87",
					"owner()": "8da5cb5b",
					"transferOwnership(address)": "f2fde38b",
					"unBlacklist(address)": "1a895266",
					"updateBlacklister(address)": "ad38bf22"
				}
			},
			"userdoc": {
				"methods": {}
			}
		}
	}
}